:020000040000FA
:0400000041EF16F0C6
:10060000003F065B4F666D7D077F6F777C395E79B3
:100610007141756D656E74612054656D702D524227
:10062000330044696D696E75692054656D702D5293
:1006300042340054656D706F2064652062616E689D
:100640006F20004573636F6C686572207065726619
:10065000696C002020446566696E69722054656D7E
:1006600070007072657373696F6E6520524231005D
:1006700054656D7020417475616C3A200050617250
:100680006120696E696369617200446566696E69BB
:10069000723A20004170657274653A200050312032
:1006A0002D524233005032202D524234005033201C
:1006B0002D5242350054656D703A200030303A308A
:0306C00030000007
:1006C40020EEE2F010EE80F0050EDBCFE3FFE8064B
:1006D400FCE2000E00019D6F1F0E9C6F000E9F6FC9
:1006E400290E9E6F000EA16F330EA06F20EEDCF07A
:1006F40010EE86F0050EDBCFE3FFE806FCE2000E09
:10070400A36F200EA26F000EA56F2A0EA46F000E19
:10071400A76F340EA66F20EED6F010EE8CF0050E07
:10072400DBCFE3FFE806FCE2000EA96F210EA86F01
:10073400000EAB6F2B0EAA6F000EAD6F350EAC6FB3
:10074400060EC16E070E926E020E936E000E946E2C
:10075400000E956E000E966E2BEC15F0010E71ECEA
:1007640016F0800E71EC16F07D0E086E060E096E02
:10077400B0EC15F0C00E71EC16F0620E086E060EA9
:10078400096EB0EC15F081B2CAEF03F0CCEF03F0C0
:10079400C5EF03F0010E71EC16F0800E71EC16F04B
:1007A400430E086E060E096EB0EC15F0C40E71EC23
:1007B40016F0940E086E060E096EB0EC15F0070ED6
:1007C400026ED00E016EC7EC14F0010E71EC16F03F
:1007D400800E71EC16F09D0E086E060E096EB0ECDC
:1007E40015F0880E71EC16F0A50E086E060E096E53
:1007F400B0EC15F0C00E71EC16F0AD0E086E060EDE
:10080400096EB0EC15F0380E936E81A60CEF04F06F
:100814000EEF04F01CEF04F081A813EF04F015EFC1
:1008240004F01CEF04F081BA1AEF04F01CEF04F09A
:1008340007EF04F081B621EF04F023EF04F039EF61
:1008440004F0920E016E000E026E800E036E000E16
:10085400046E22EC16F09CC0BCF09DC0BDF09EC09E
:10086400BEF09FC0BFF0A0C0C0F0A1C0C1F081B86D
:100874003EEF04F040EF04F056EF04F0920E016EE8
:10088400000E026E860E036E000E046E22EC16F04D
:10089400A2C0BCF0A3C0BDF0A4C0BEF0A5C0BFF010
:1008A400A6C0C0F0A7C0C1F081BA5BEF04F05DEF51
:1008B40004F073EF04F0920E016E000E026E8C0EC3
:1008C400036E000E046E22EC16F0A8C0BCF0A9C0A2
:1008D400BDF0AAC0BEF0ABC0BFF0ACC0C0F0ADC0AC
:1008E400C1F0010E71EC16F0800E71EC16F0530E8F
:1008F400086E060E096EB0EC15F0C40E71EC16F01D
:10090400940E086E060E096EB0EC15F0070E026E1A
:10091400D00E016EC7EC14F0010E71EC16F0800ECF
:1009240071EC16F0BCC013F0BDC014F0B60E156E19
:10093400000E166E4AEC12F00001B8515CEC16F091
:100944000001B9515CEC16F00001BA515CEC16F0F0
:10095400A00E086E060E096EB0EC15F0880E71EC50
:1009640016F0BEC013F0BFC014F0B60E156E000E24
:10097400166E4AEC12F00001B8515CEC16F000015E
:10098400B9515CEC16F00001BA515CEC16F0A80EFB
:10099400086E060E096EB0EC15F0C00E71EC16F080
:1009A400C0C013F0C1C014F0B60E156E000E166E62
:1009B4004AEC12F00001B8515CEC16F00001B95198
:1009C4005CEC16F00001BA515CEC16F0B00E086E47
:1009D400060E096EB0EC15F0380E936E81A6F5EF95
:1009E40004F0F7EF04F005EF05F081A8FCEF04F044
:1009F400FEEF04F005EF05F081BA03EF05F005EF13
:100A040005F0F0EF04F0000E0001CD6F000ECC6F86
:100A140081B60FEF05F011EF05F015EF05F0BCC03E
:100A2400CCF0BDC0CDF081B81AEF05F01CEF05F095
:100A340020EF05F0BEC0CCF0BFC0CDF081BA25EFE9
:100A440005F027EF05F02BEF05F0C0C0CCF0C1C0D6
:100A5400CDF0800E71EC16F0330E086E060E096EA2
:100A6400B0EC15F0C00E71EC16F08A0E086E060E8E
:100A7400096EB0EC15F0CA0E71EC16F0BC0E086EDF
:100A8400060E096EB0EC15F0000EC16E000E0001EA
:100A9400D36F000ED26F000ECB6F000ECA6F000E24
:100AA400C76F000EC66F000ED56F000ED46F000E18
:100AB400D16F000ED06FCA0E71EC16F0A7EC16F0D1
:100AC400ECEF06F0E5EC10F0A2EC16F00001D251C8
:100AD400011809E1D3510218D8B473EF05F075EF8A
:100AE40005F0ECEF06F0A2EC16F001C0D2F002C063
:100AF400D3F00001D2A781EF05F083EF05F09BEF5F
:100B040005F0310E5CEC16F0AE0E0001D425D96E62
:100B1400000ED521DA6E310EDF6E000ECF6F010E9E
:100B2400CE6FD44BD52BCA4BCB2BC64BC72B7CEFEC
:100B340006F0D2AFA0EF05F0A2EF05F0B4EF05F098
:100B4400320E5CEC16F0AE0E0001D425D96E000E08
:100B5400D521DA6E320EDF6E000ECF6F020ECE6F2D
:100B640093EF05F0D3A7B9EF05F0BBEF05F0CDEF98
:100B740005F0330E5CEC16F0AE0E0001D425D96EF0
:100B8400000ED521DA6E330EDF6E000ECF6F030E2A
:100B9400CE6F93EF05F0D2A5D2EF05F0D4EF05F0B8
:100BA400E6EF05F0340E5CEC16F0AE0E0001D42531
:100BB400D96E000ED521DA6E340EDF6E000ECF6FC3
:100BC400040ECE6F93EF05F0D2ADEBEF05F0EDEF31
:100BD40005F0FFEF05F0350E5CEC16F0AE0E0001EB
:100BE400D425D96E000ED521DA6E350EDF6E000ED7
:100BF400CF6F050ECE6F93EF05F0D3A504EF06F08B
:100C040006EF06F018EF06F0360E5CEC16F0AE0EAA
:100C14000001D425D96E000ED521DA6E360EDF6EB2
:100C2400000ECF6F060ECE6F93EF05F0D2A31DEF2B
:100C340006F01FEF06F031EF06F0370E5CEC16F00D
:100C4400AE0E0001D425D96E000ED521DA6E370E12
:100C5400DF6E000ECF6F070ECE6F93EF05F0D2ABB1
:100C640036EF06F038EF06F04AEF06F0380E5CEC8B
:100C740016F0AE0E0001D425D96E000ED521DA6E21
:100C8400380EDF6E000ECF6F080ECE6F93EF05F0B7
:100C9400D3A34FEF06F051EF06F063EF06F0390EE1
:100CA4005CEC16F0AE0E0001D425D96E000ED521F1
:100CB400DA6E390EDF6E000ECF6F090ECE6F93EF32
:100CC40005F0D2A968EF06F06AEF06F07CEF06F0B3
:100CD400300E5CEC16F0AE0E0001D425D96E000E79
:100CE400D521DA6E300EDF6E000ECF6F000ECE6FA0
:100CF40093EF05F0CA51CB11D8B483EF06F085EF1A
:100D040006F094EF06F0CAB18AEF06F08CEF06F015
:100D140094EF06F0140E71EC16F0000E0001CB6F88
:100D2400000ECA6FD405D511D8A49BEF06F09DEF31
:100D340006F0ACEF06F0CEC001F0CFC002F0010E19
:100D4400046E2C0E036E86EC16F001500001D027C1
:100D54000250D123020ED419D511D8A4B4EF06F051
:100D6400B6EF06F0C5EF06F0CEC001F0CFC002F03A
:100D7400000E046E1E0E036E86EC16F00150000188
:100D8400D0270250D123030ED419D511D8A4CDEF06
:100D940006F0CFEF06F0DEEF06F0CEC001F0CFC0D4
:100DA40002F0000E046E050E036E86EC16F0015080
:100DB4000001D0270250D123040ED419D511D8A490
:100DC400E6EF06F0E8EF06F0ECEF06F0CE51D027A0
:100DD400CF51D123040E0001C619C711D8A4F5EFD1
:100DE40006F0F7EF06F064EF05F0010E71EC16F073
:100DF400800E71EC16F0110E086E060E096EB0EC42
:100E040015F0C00E71EC16F0220E086E060E096E77
:100E1400B0EC15F0070E026ED00E016EC7EC14F0A4
:100E2400010E71EC16F0000EC06E030E926E000EF1
:100E3400946E180E936E000E956E060EC16E85ECC0
:100E440015F000EC16F037EF09F0800E71EC16F097
:100E5400B50E086E060E096EB0EC15F0000E0A6EA3
:100E6400640E096ECCC001F0CDC002F0000E046E19
:100E74000A0E036E86EC16F001C007F002C008F0FB
:100E8400D3EC13F007C00FF008C010F0000E126E80
:100E94000A0E116E35EC14F00F50300F5CEC16F0A6
:100EA400000E0A6E0A0E096ECCC001F0CDC002F02D
:100EB400000E046E0A0E036E86EC16F001C007F0F5
:100EC40002C008F0D3EC13F007C00FF008C010F014
:100ED400000E126E0A0E116E35EC14F00F50300F26
:100EE4005CEC16F02C0E5CEC16F0CCC001F0CDC01E
:100EF40002F0000E046E0A0E036E86EC16F001C0BA
:100F04000FF002C010F0000E126E0A0E116E35ECD6
:100F140014F00F50300F5CEC16F081B694EF07F02C
:100F240096EF07F099EF07F00001CC4BCD2B81B879
:100F34009EEF07F0A0EF07F0A4EF07F00001CC0745
:100F4400D8A0CD07C00E71EC16F0700E086E060E18
:100F5400096EB0EC15F0000E176E000E186EA00EA0
:100F6400196E3B0E1A6E000E026E020E016ED8EC64
:100F740015F001C005F002C006F0000E06BEFF0E1B
:100F8400076E086E010E0BEC10F005C013F006C0DE
:100F940014F007C015F008C016F0A8EC0BF013C04D
:100FA40098F014C099F015C09AF016C09BF0000E8A
:100FB400176E000E186EC80E196E420E1A6E98C087
:100FC40013F099C014F09AC015F09BC016F0A8EC69
:100FD4000BF013C02CF014C02DF015C02EF016C069
:100FE4002FF0CEEC12F02CC0C8F02DC0C9F0000ECA
:100FF4000A6E640E096EC8C001F0C9C002F0000E8A
:10100400046E0A0E036E86EC16F001C007F002C0EF
:1010140008F08DEC14F007C00EF008C00FF0000EBD
:10102400116E0A0E106EF9EC14F00E50300F5CECD9
:1010340016F0000E0A6E0A0E096EC8C001F0C9C08F
:1010440002F0000E046E0A0E036E86EC16F001C068
:1010540007F002C008F08DEC14F007C00EF008C0D1
:101064000FF0000E116E0A0E106EF9EC14F00E5013
:10107400300F5CEC16F02C0E5CEC16F0C8C001F0DE
:10108400C9C002F0000E046E0A0E036E86EC16F060
:1010940001C00EF002C00FF0000E116E0A0E106EA9
:1010A400F9EC14F00E50300F5CEC16F00001CC514A
:1010B400C85DCD51C959D8B062EF08F064EF08F0AB
:1010C40067EF08F0828A68EF08F0829AD007D8A008
:1010D400D107000EB56F000EB46FB5BF7BEF08F0FB
:1010E400B55109E1280EB45DD8A07BEF08F07DEF7F
:1010F40008F07FEF08F037EF09F0030E156ED0C04B
:101104000FF0D1C010F0000E126E0A0E116E35EC05
:1011140014F00F5059EC15F0020E156E000E0A6E05
:101124000A0E096ED0C007F0D1C008F0D3EC13F05A
:1011340007C00FF008C010F0000E126E0A0E116EF8
:1011440035EC14F00F5059EC15F0010E156E000E2D
:101154000A6E640E096ED0C007F0D1C008F0D3EC5B
:1011640013F007C00FF008C010F0000E126E0A0E44
:10117400116E35EC14F00F5059EC15F0000E156E8D
:10118400030E0A6EE80E096ED0C007F0D1C008F055
:10119400D3EC13F007C00FF008C010F0000E126E6D
:1011A4000A0E116E35EC14F00F5059EC15F0A2EC48
:1011B40011F0000E0001C26F000EC36F000EC46F69
:1011C400000EC56FC2C001F0C3C002F0C4C003F07A
:1011D400C5C004F0000E056E000E066EC80E076E44
:1011E400420E086E51EC13F0D8A0FBEF08F0FDEFAF
:1011F40008F0FFEF08F032EF09F0C2C001F0C3C0FD
:1012040002F0C4C003F0C5C004F0000E056E000E69
:10121400066E800E076E3F0E086E48EC09F001C0A2
:10122400C2F002C0C3F003C0C4F004C0C5F0C2C021
:1012340001F0C3C002F0C4C003F0C5C004F0000E46
:10124400056E000E066EC80E076E420E086E51EC57
:1012540013F0D8A030EF09F032EF09F0FFEF08F0F7
:101264000001B44BB52B6FEF08F00001D051D11140
:10127400D8A43FEF09F041EF09F027EF07F0829A75
:10128400809A80988096809400EF00F00450800B40
:101294000D6E045004240F6E03AE53EF09F055EFA6
:1012A40009F056EF09F00F800F50D8B45CEF09F045
:1012B4005EEF09F073EF09F00F28D8A464EF09F08A
:1012C40066EF09F06EEF09F0000E016E000E026E7B
:1012D400000E036E000E046E038E000E046E7BEF90
:1012E40009F0000E016E000E026E000E036E000E79
:1012F400046E0850800B0E6E0D500E18D8B485EF96
:1013040009F087EF09F088EF09F00D8C08500824E4
:101314000E6E07AE90EF09F092EF09F093EF09F02B
:101324000E800E50D8B499EF09F09BEF09F0B0EF9E
:1013340009F00E28D8A4A1EF09F0A3EF09F0ABEF50
:1013440009F0000E056E000E066E000E076E000E0C
:10135400086E078E000E086EB8EF09F0000E056ED9
:10136400000E066E000E076E000E086E0F500E5C27
:10137400D8B0BFEF09F0C1EF09F0E8EF09F00DAC08
:10138400C6EF09F0C8EF09F0CAEF09F0800E0D1A94
:101394000FC010F00EC00FF010C00EF001C010F01E
:1013A40005C001F010C005F002C010F006C002F044
:1013B40010C006F003C010F007C003F010C007F01F
:1013C40004C010F008C004F010C008F0000E106E45
:1013D4000F500EC009F00A6A095E000E0A5A0ABECE
:1013E400FDEF09F00A5009E11A0E095CD8A0FDEFDF
:1013F40009F0FFEF09F036EF0AF001500210031074
:101404000410D8A408EF0AF00BEF0AF0010E0CEF59
:101414000AF0000E106E000E016E000E026E000E39
:10142400036E000E046E0EC00FF03FEF0AF010A022
:101434001EEF0AF020EF0AF026EF0AF0D8901030E1
:101444000109106E28EF0AF0D890103201A02DEF98
:101454000AF02FEF0AF030EF0AF0108E0434043251
:101464000332023201320F2A0E500F5CD8A03DEF36
:101474000AF03FEF0AF019EF0AF00DBC44EF0AF04E
:1014840046EF0AF086EF0AF00F50D8A44CEF0AF0AA
:101494004EEF0AF058EF0AF0000E016E000E026ED5
:1014A400000E036E000E046EA7EF0BF0055001262C
:1014B40006500222075003220850042204A065EFBC
:1014C4000AF067EF0AF013EF0BF010A06CEF0AF0CC
:1014D4006EEF0AF074EF0AF0D89010300109106E24
:1014E40076EF0AF0D890103201A07BEF0AF07DEF7E
:1014F4000AF07EEF0AF0108E043404320332023212
:1015040001320F2A13EF0BF00550015C065002580C
:10151400075003580450800A096E0850800A09587D
:10152400D8B097EF0AF099EF0AF0C4EF0AF001502F
:10153400055C096E025006580A6E035007580B6E7C
:10154400045008580C6EFF0E0924016EFF0E0A2089
:10155400026EFF0E0B20036EFF0E0C20046E800E35
:101564000D1A106C1050D8A4BAEF0AF0BCEF0AF0B0
:10157400CCEF0AF0010E0126000E022203220422FF
:10158400CCEF0AF00550015E0650025A0750035A88
:101594000850045A0150021003100410D8A4D5EFC7
:1015A4000AF0D7EF0AF00CEF0BF01050D8A4DDEFDF
:1015B4000AF0DFEF0AF00CEF0BF0000E016E000EE4
:1015C400026E000E036E000E046EA7EF0BF0D890AF
:1015D400013602360336043610AEF3EF0AF0F5EFA7
:1015E4000AF0F6EF0AF0018010A0FBEF0AF0FDEF1D
:1015F4000AF001EF0BF0D880103603EF0BF0D8900F
:1016040010360F50D8B409EF0BF00BEF0BF00CEFC2
:101614000BF00F0603AE11EF0BF013EF0BF0E9EF35
:101624000AF0000E0E6E10AE1AEF0BF01CEF0BF06A
:1016340034EF0BF010C009F07F0E0916D8B425EF73
:101644000BF027EF0BF02BEF0BF0010E0E6E34EFC7
:101654000BF001A030EF0BF032EF0BF034EF0BF096
:1016640027EF0BF00E50D8B43AEF0BF03CEF0BF031
:1016740067EF0BF0010E0126000E02220322042262
:1016840004A047EF0BF049EF0BF067EF0BF001C03C
:1016940009F002C00AF003C00BF004C00CF00C34D3
:1016A4000C320B320A32093209C001F00AC002F0CE
:1016B4000BC003F00CC004F00F28D8B464EF0BF097
:1016C40066EF0BF067EF0BF00F2A0F28D8B46DEF1D
:1016D4000BF06FEF0BF077EF0BF00F50D8A475EF12
:1016E4000BF077EF0BF089EF0BF0000E016E000E9C
:1016F400026E000E036E000E046E0F50D8A485EF28
:101704000BF087EF0BF089EF0BF0000E0D6E0FA0BE
:101714008EEF0BF090EF0BF093EF0BF0038E94EF42
:101724000BF0039ED8900F30046E0DAE9CEF0BF0BF
:101734009EEF0BF09FEF0BF0048E01C001F002C08E
:1017440002F003C003F004C004F012001650800B32
:101754001F6E16501624256E15AEB3EF0BF0B5EFC1
:101764000BF0B6EF0BF025802550D8B4BCEF0BF08E
:10177400BEEF0BF0D1EF0BF02528D8A4C4EF0BF08B
:10178400C6EF0BF0CEEF0BF0000E136E000E146ECE
:10179400000E156E000E166E158ED9EF0BF0000EAE
:1017A400136E000E146E000E156E000E166E1A5097
:1017B400800B1F1A1A501A24246E19AEE4EF0BF092
:1017C400E6EF0BF0E7EF0BF024802450D8B4EDEFF4
:1017D4000BF0EFEF0BF002EF0CF02428D8A4F5EF98
:1017E4000BF0F7EF0BF0FFEF0BF0000E176E000E8F
:1017F400186E000E196E000E1A6E198E0AEF0CF098
:10180400000E176E000E186E000E196E000E1A6E82
:101814002450D8B410EF0CF012EF0CF01AEF0CF0C7
:101824002550D8A418EF0CF01AEF0CF024EF0CF0AC
:10183400000E136E000E146E000E156E000E166E62
:10184400BCEF0DF019501302F3CF2AF0F4CF2BF0B4
:101854002A50206E216A226A236A2B50266E276A38
:10186400286A296A18501402F3CF2AF0F4CF2BF017
:101874002A502026000E2122222223222B50262603
:10188400000E27222822292217501502F3CF2AF00E
:10189400F4CF2BF02A502026000E212222222322CC
:1018A4002B502626000E27222822292222C023F08C
:1018B40021C022F020C021F0206A17501402F3CF77
:1018C4002AF0F4CF2BF02A5020262B502122000E90
:1018D4002222000E232218501302F3CF2AF0F4CF51
:1018E4002BF02A5020262B502122000E2222000EFB
:1018F400232222C023F021C022F020C021F0206A3C
:1019040017501302F3CF2AF0F4CF2BF02A502026DD
:101914002B502122000E2222000E232219501402E1
:10192400F3CF2AF0F4CF2BF02A5026262B5027226F
:10193400000E2822000E292218501502F3CF2AF097
:10194400F4CF2BF02A5026262B502722000E2822D3
:10195400000E292219501502F3CF2AF0F4CF2BF0F0
:101964002A501B6E2B501C6E1D6A1E6A1DC01EF071
:101974001CC01DF01BC01CF01B6A1B5026261C50EB
:1019840027221D5028221E50292220C01BF021C0CE
:101994001CF022C01DF023C01EF0190ED7EF0CF06E
:1019A400D8901E321D321C321B32E82ED2EF0CF0BE
:1019B4001B5026261C5027221D5028221E50292247
:1019C40022C023F021C022F020C021F0206A24503C
:1019D40025C01BF01C6A1B26000E1C22820E1B2431
:1019E4002A6EFF0E1C202B6E0DEF0DF0D8902636BC
:1019F40027362836293623AE02EF0DF004EF0DF01A
:101A040005EF0DF02680D890203621362236233675
:101A14002A06D8A02B0628AE12EF0DF014EF0DF015
:101A2400F8EF0CF0000E246E23AE1BEF0DF01DEF4B
:101A34000DF041EF0DF0FF0E20141B6EFF0E21146C
:101A44001C6EFF0E22141D6E7F0E23141E6E1B507F
:101A54001C101D101E10D8B432EF0DF034EF0DF031
:101A640038EF0DF0010E246E41EF0DF026A03DEF8E
:101A74000DF03FEF0DF041EF0DF034EF0DF0245079
:101A8400D8B447EF0DF049EF0DF06DEF0DF0010EF6
:101A94002626000E27222822292229A054EF0DF001
:101AA40056EF0DF06DEF0DF026C01BF027C01CF0B3
:101AB40028C01DF029C01EF01E341E321D321C32F7
:101AC4001B321BC026F01CC027F01DC028F01EC00E
:101AD40029F02A4A2B2A2BBE78EF0DF02B5008E16F
:101AE4002A28D8A078EF0DF07AEF0DF084EF0DF0EE
:101AF400000E266E000E276E800E286E7F0E296E55
:101B0400B2EF0DF02BBE91EF0DF02B5006E12A043D
:101B1400D8B08FEF0DF091EF0DF09DEF0DF0000EAA
:101B2400266E000E276E000E286E000E296E000E23
:101B34001F6EB2EF0DF02AC025F0FF0E2616FF0E21
:101B440027167F0E2816000E291625A0ACEF0DF0DF
:101B5400AEEF0DF0AFEF0DF0288ED8902530296E42
:101B64001F50291226C013F027C014F028C015F006
:101B740029C016F0120002BECBEF0DF0025007E1AF
:101B8400080E015CD8B0C9EF0DF0CBEF0DF0F5EF06
:101B94000DF003500410D8B4D2EF0DF0D4EF0DF0D3
:101BA400E4EF0DF001C005F0010E066E052ADDEF2D
:101BB4000DF0D8900636052EDBEF0DF0065080129E
:101BC400E3EF0EF001C005F0010E066E052AEDEFFD
:101BD4000DF0D8900636052EEBEF0DF00650FF0AF7
:101BE4008016E3EF0EF002BE03EF0EF0025007E1A1
:101BF400100E015CD8B001EF0EF003EF0EF031EFE0
:101C04000EF0F80E0126FF0E022203500410D8B481
:101C14000EEF0EF010EF0EF020EF0EF001C005F005
:101C2400010E066E052A19EF0EF0D8900636052E21
:101C340017EF0EF006508112E3EF0EF001C005F02D
:101C4400010E066E052A29EF0EF0D8900636052EF1
:101C540027EF0EF00650FF0A8116E3EF0EF002BEE6
:101C64003FEF0EF0025007E1180E015CD8B03DEFD3
:101C74000EF03FEF0EF06DEF0EF0F00E0126FF0EAA
:101C8400022203500410D8B44AEF0EF04CEF0EF0C9
:101C94005CEF0EF001C005F0010E066E052A55EF4B
:101CA4000EF0D8900636052E53EF0EF00650821231
:101CB400E3EF0EF001C005F0010E066E052A65EF94
:101CC4000EF0D8900636052E63EF0EF00650FF0A8C
:101CD4008216E3EF0EF002BE7BEF0EF0025007E136
:101CE400200E015CD8B079EF0EF07BEF0EF0A9EF77
:101CF4000EF0E80E0126FF0E022203500410D8B4A1
:101D040086EF0EF088EF0EF098EF0EF001C005F0AC
:101D1400010E066E052A91EF0EF0D8900636052EB8
:101D24008FEF0EF006508312E3EF0EF001C005F0C2
:101D3400010E066E052AA1EF0EF0D8900636052E88
:101D44009FEF0EF00650FF0A8316E3EF0EF002BE7B
:101D5400B7EF0EF0025007E1280E015CD8B0B5EFE2
:101D64000EF0B7EF0EF0E3EF0EF0E00E0126FF0EDB
:101D7400022203500410D8B4C2EF0EF0C4EF0EF0E8
:101D8400D4EF0EF001C005F0010E066E052ACDEF6A
:101D94000EF0D8900636052ECBEF0EF006508412C6
:101DA400E3EF0EF001C005F0010E066E052ADDEF2B
:101DB4000EF0D8900636052EDBEF0EF00650FF0A23
:101DC4008416120002BEF2EF0EF0025007E1080E74
:101DD400015CD8B0F0EF0EF0F2EF0EF01CEF0FF054
:101DE40003500410D8B4F9EF0EF0FBEF0EF00BEF34
:101DF4000FF001C005F0010E066E052A04EF0FF086
:101E0400D8900636052E02EF0FF0065092120AEF14
:101E140010F001C005F0010E066E052A14EF0FF054
:101E2400D8900636052E12EF0FF00650FF0A9216D0
:101E34000AEF10F002BE2AEF0FF0025007E1100E75
:101E4400015CD8B028EF0FF02AEF0FF058EF0FF035
:101E540003500410D8B431EF0FF033EF0FF045EF17
:101E64000FF001C005F0F80E0526010E066E052AD6
:101E74003EEF0FF0D8900636052E3CEF0FF00650DB
:101E840093120AEF10F001C005F0F80E0526010EBA
:101E9400066E052A50EF0FF0D8900636052E4EEF49
:101EA4000FF00650FF0A93160AEF10F002BE66EF19
:101EB4000FF0025007E1180E015CD8B064EF0FF088
:101EC40066EF0FF094EF0FF003500410D8B46DEFE9
:101ED4000FF06FEF0FF081EF0FF001C005F0F00E7F
:101EE4000526010E066E052A7AEF0FF0D890063605
:101EF400052E78EF0FF0065094120AEF10F001C08F
:101F040005F0F00E0526010E066E052A8CEF0FF083
:101F1400D8900636052E8AEF0FF00650FF0A941665
:101F24000AEF10F002BEA2EF0FF0025007E1200EFC
:101F3400015CD8B0A0EF0FF0A2EF0FF0D0EF0FF0DC
:101F440003500410D8B4A9EF0FF0ABEF0FF0BDEFBE
:101F54000FF001C005F0E80E0526010E066E052AF5
:101F6400B6EF0FF0D8900636052EB4EF0FF00650FA
:101F740095120AEF10F001C005F0E80E0526010ED7
:101F8400066E052AC8EF0FF0D8900636052EC6EF68
:101F94000FF00650FF0A95160AEF10F002BEDEEFAE
:101FA4000FF0025007E1280E015CD8B0DCEF0FF00F
:101FB400DEEF0FF00AEF10F003500410D8B4E5EF91
:101FC4000FF0E7EF0FF0F9EF0FF001C005F0E00EAE
:101FD4000526010E066E052AF2EF0FF0D89006369C
:101FE400052EF0EF0FF0065096120AEF10F001C024
:101FF40005F0E00E0526010E066E052A04EF10F02A
:10200400D8900636052E02EF10F00650FF0A9616F9
:1020140012000D6E0D50D8B412EF10F014EF10F042
:1020240036EF10F008BE1BEF10F019EF10F036EF8A
:1020340010F005C009F006C00AF007C00BF008C094
:102044000CF0091E0A1E0B1E0C1E092A000E0A2281
:102054000B220C2209C00FF00AC010F00BC011F0C3
:102064000CC012F03EEF10F005C00FF006C010F0E7
:1020740007C011F008C012F0055006100710081030
:10208400D8A447EF10F049EF10F053EF10F0000E12
:10209400056E000E066E000E076E000E086EE4EF6D
:1020A40010F0960E0E6E5DEF10F00E2AD8901232DC
:1020B400113210320F32000E0F14096E000E10147C
:1020C4000A6E000E11140B6EFE0E12140C6E0950E3
:1020D4000A100B100C10D8A472EF10F074EF10F06B
:1020E40057EF10F082EF10F00E2A010E0F26000EAB
:1020F400102211221222D8901232113210320F32D1
:10210400000E0F14096E000E10140A6E000E111446
:102114000B6EFF0E12140C6E09500A100B100C10EB
:10212400D8A497EF10F099EF10F076EF10F0A1EF2C
:1021340010F00E06D8900F3610361136123611BE36
:10214400A6EF10F0A8EF10F0B0EF10F0020E0E6042
:10215400AEEF10F0B0EF10F09BEF10F00EB0B5EF53
:1021640010F0B7EF10F0B8EF10F0119ED8900E32C7
:102174000EC009F00A6A0B6A0C6A09C00CF00B6AFB
:102184000A6A096A09500F120A5010120B501112F0
:102194000C5012120D50D8B4D2EF10F0D4EF10F04E
:1021A400DCEF10F008BEDBEF10F0D9EF10F0DCEF3D
:1021B40010F0128E0FC005F010C006F011C007F029
:1021C40012C008F0120083CF06F00F0E9512000E15
:1021D4000A6EF80E93160AC001F0010E026E012A6F
:1021E400F6EF10F0D8900236012EF4EF10F0025002
:1021F4009312070E81120AC001F0010E026E012A29
:1022040006EF11F0D8900236012E04EF11F00250BF
:10221400FF0A8116000E086E000E076E074A082A90
:1022240008BE1EEF11F0085009E10A0E075CD8A0A1
:102234001EEF11F020EF11F010EF11F0000E096EF7
:1022440009C001F0010E026E012A2BEF11F0D890A3
:102254000236012E29EF11F0025083140009D8A48C
:1022640036EF11F038EF11F050EF11F00A50040D71
:10227400F3500924016E010E026E000E036E012A52
:1022840047EF11F0D89002360336012E44EF11F0D7
:1022940002503812035039126AEF11F00A50040D3B
:1022A400F3500924016E010E026E000E036E012A22
:1022B4005FEF11F0D89002360336012E5CEF11F077
:1022C400021C046E031C056E0450381605503916A2
:1022D400092A030E096471EF11F073EF11F022EF74
:1022E40011F00A2A020E0A647AEF11F07CEF11F061
:1022F400EBEF10F03850361807E139503718D8A4EE
:1023040086EF11F088EF11F08BEF11F0410691EF99
:1023140011F00A0E416E38C036F039C037F0415022
:10232400D8A497EF11F099EF11F09DEF11F036C09A
:102334003AF037C03BF006C083FF000E956E1200E2
:10234400000E956E000E026E020E016E000E046EFB
:10235400000E036EBDEC0DF0000E026E030E016E56
:10236400000E046E000E036EBDEC0DF0000E026E46
:10237400040E016E000E046E000E036EBDEC0DF033
:10238400000E026E050E016E000E046E000E036E4A
:10239400BDEC0DF0000E836E2CEF12F0010E3F2405
:1023A400F66EF76A060EF7220800F5CF83FF000EDB
:1023B400026E020E016E000E046E010E036EBDEC81
:1023C4000DF0010E406E49EF12F0010E3E24F66E40
:1023D400F76A060EF7220800F5CF83FF000E026E9F
:1023E400030E016E000E046E010E036EBDEC0DF0C3
:1023F400020E406E49EF12F0010E3D24F66EF76AAC
:10240400060EF7220800F5CF83FF000E026E040EBD
:10241400016E000E046E010E036EBDEC0DF0030E92
:10242400406E49EF12F0010E3C24F66EF76A060E78
:10243400F7220800F5CF83FF000E026E050E016E31
:10244400000E046E010E036EBDEC0DF0000E406E26
:1024540049EF12F04050076E086A0850000AD8B4D9
:1024640036EF12F028EF12F00750000AD8B4D0EF7C
:1024740011F0010AD8B4E7EF11F0030AD8B4FEEF63
:1024840011F0010AD8B415EF12F028EF12F012007F
:1024940013C007F014C008F0270E0A6E100E096E60
:1024A4008DEC14F00750300F15C0D9FF16C0DAFFB9
:1024B400DF6E20EE01F01550D9261650DA22270ED1
:1024C400116E100E106E13C00EF014C00FF0F9EC64
:1024D40014F00EC007F00FC008F0030E0A6EE80EE9
:1024E400096E8DEC14F00750300FDF6E20EE02F011
:1024F4001550D9261650DA22030E116EE80E106E0E
:1025040013C00EF014C00FF0F9EC14F00EC007F075
:102514000FC008F0000E0A6E640E096E8DEC14F004
:102524000750300FDF6E20EE03F01550D9261650F9
:10253400DA22000E116E640E106E13C00EF014C079
:102544000FF0F9EC14F00EC007F00FC008F0000E05
:102554000A6E0A0E096E8DEC14F00750300FDF6E10
:1025640020EE04F01550D9261650DA2213C00EF0CE
:1025740014C00FF0000E116E0A0E106EF9EC14F078
:102584000E50300FDF6E20EE05F01550D926165090
:10259400DA22000EDF6E12002E342F34356E3550E1
:1025A400D8A4D7EF12F0D9EF12F0E3EF12F0000E37
:1025B4002C6E000E2D6E000E2E6E000E2F6E50EF40
:1025C40013F02CC030F02DC031F02EC032F02FC0EB
:1025D40033F0200EF3EF12F0D8903332323231322E
:1025E4003032E82EEEEF12F03050346E2E8EFF0EA5
:1025F4002C16FF0E2D16FF0E2E16000E2F16960EFD
:10260400355E35BE0AEF13F008EF13F020EF13F038
:102614003550800A970FD8B012EF13F014EF13F06F
:1026240016EF13F0D9EF12F0D8902F322E322D324C
:102634002C32353E16EF13F038EF13F01F0E3564CD
:1026440026EF13F028EF13F030EF13F0D9EF12F068
:10265400D8902C362D362E362F3635063550D8A444
:1026640036EF13F038EF13F02AEF13F03450D8B4E8
:102674003EEF13F040EF13F048EF13F02F1E2E1E21
:102684002D1E2C6C000E2D222E222F222CC02CF05D
:102694002DC02DF02EC02EF02FC02FF01200000EF2
:1026A4000114096E000E02140A6E800E03140B6EE0
:1026B4007F0E04140C6E09500A100B100C10D8A4D1
:1026C40066EF13F068EF13F070EF13F0000E016E75
:1026D400000E026E000E036E000E046E000E051452
:1026E400096E000E06140A6E800E07140B6E7F0E20
:1026F40008140C6E09500A100B100C10D8A485EFA6
:1027040013F087EF13F08FEF13F0000E056E000E39
:10271400066E000E076E000E086E04AE94EF13F002
:1027240096EF13F09FEF13F0016C021ED8B0022A4B
:10273400031ED8B0032A800E045608AEA4EF13F08B
:10274400A6EF13F0AFEF13F0056C061ED8B0062AFF
:10275400071ED8B0072A800E0856000E011A000E74
:10276400021A000E031A800E041A000E051A000E37
:10277400061A000E071A800E081A0550015C06504E
:1027840002580750035808500458D8B0CCEF13F03F
:10279400CEEF13F0D1EF13F0D890D2EF13F0D8802E
:1027A4001200000E0C6E0ABEDCEF13F0DAEF13F029
:1027B400E2EF13F0096C0A1ED8B00A2A010E0C6E5F
:1027C40008BEE9EF13F0E7EF13F0EFEF13F0076C37
:1027D400081ED8B0082A010E0C1A000E0E6E000E48
:1027E4000D6E09500A10D8B4FAEF13F0FCEF13F091
:1027F40024EF14F0010E0B6E04EF14F0D890093698
:102804000A360B2A0AAE09EF14F00BEF14F000EFAE
:1028140014F0D8900D360E360950075C0A5008584B
:10282400D8A017EF14F019EF14F01EEF14F00950AC
:10283400075E0A50085A0D80D8900A3209320B2ECE
:102844000BEF14F00C50D8B42AEF14F02CEF14F062
:1028540030EF14F00D6C0E1ED8B00E2A0DC007F028
:102864000EC008F01200000E146E10BE3EEF14F0FD
:102874003CEF14F044EF14F00F6C101ED8B0102A83
:10288400010E146E12BE4BEF14F049EF14F04FEF2B
:1028940014F0116C121ED8B0122A11501210D8B4B0
:1028A40056EF14F058EF14F07CEF14F0010E136E91
:1028B40060EF14F0D89011361236132A12AE65EF79
:1028C40014F067EF14F05CEF14F011500F5C125029
:1028D4001058D8A070EF14F072EF14F076EF14F0E3
:1028E40011500F5E1250105AD89012321132132E1A
:1028F40067EF14F01450D8B482EF14F084EF14F09E
:1029040088EF14F00F6C101ED8B0102A0FC00FF00F
:1029140010C010F01200000E0C6E000E0B6E095069
:102924000A10D8B498EF14F09AEF14F0C2EF14F030
:10293400010E0D6EA2EF14F0D89009360A360D2A56
:102944000AAEA7EF14F0A9EF14F09EEF14F0D8909C
:102954000B360C360950075C0A500858D8A0B5EF5E
:1029640014F0B7EF14F0BCEF14F00950075E0A50EE
:10297400085A0B80D8900A3209320D2EA9EF14F0B0
:102984000BC007F00CC008F01200000E046E000E1D
:10299400036EEDEF14F0000E056E280E0564D5EFFE
:1029A40014F0D7EF14F0D9EF14F0EBEF14F0000E9D
:1029B400066E020E0664E1EF14F0E3EF14F0E5EFA7
:1029C40014F0E8EF14F0062ADBEF14F0052ACFEF39
:1029D40014F0034A042A0150035C02500458D8A09E
:1029E400F6EF14F0F8EF14F0CDEF14F012001050DD
:1029F4001110D8B400EF15F002EF15F026EF15F022
:102A0400010E126E0AEF15F0D89010361136122A04
:102A140011AE0FEF15F011EF15F006EF15F0105091
:102A24000E5C11500F58D8A01AEF15F01CEF15F0DA
:102A340020EF15F010500E5E11500F5AD89011323D
:102A44001032122E11EF15F00EC00EF00FC00FF061
:102A5400120084928494000E026E140E016EC7EC70
:102A640014F08482380E71EC16F0000E026E050E1E
:102A7400016EC7EC14F0380E71EC16F0000E026E05
:102A8400010E016EC7EC14F0380E71EC16F0080E4E
:102A940071EC16F00F0E71EC16F0010E71EC16F0DD
:102AA400380E71EC16F0800E71EC16F01200166EF2
:102AB4001550D8A460EF15F062EF15F064EF15F02F
:102AC40016C03FF01504D8A46AEF15F06CEF15F0AA
:102AD4006EEF15F016C03EF0020E1518D8A475EF6F
:102AE40015F077EF15F079EF15F016C03DF0030EF1
:102AF4001518D8A480EF15F082EF15F084EF15F0C7
:102B040016C03CF01200000E026E020E016E000EA2
:102B1400046E000E036EE4EC0EF0000E026E030E63
:102B2400016E000E046E000E036EE4EC0EF0000E57
:102B3400026E040E016E000E046E000E036EE4ECD1
:102B44000EF0000E026E050E016E000E046E000EF5
:102B5400036EE4EC0EF0000E956E1200000E0C6E87
:102B6400C3EF15F00C5008240A6E000E09200B6EFA
:102B74000AC0F6FF0BC0F7FF0800F5505CEC16F036
:102B84000C2A0C5008240A6E000E09200B6E0AC091
:102B9400F6FF0BC0F7FF0800F5500009D8A4D5EFE5
:102BA40015F0D7EF15F0B4EF15F01200C30EC216EE
:102BB400025007E1030E015CD8B0E3EF15F0E5EF36
:102BC40015F0E9EF15F00144E846FC0BC212C2828D
:102BD400C2B2EFEF15F0F1EF15F0EAEF15F0C4CF44
:102BE40003F0046A0350046E036AC3500326000E04
:102BF400042203C001F004C002F01200000E026EB1
:102C0400000E016E000E046E010E036EE4EC0EF075
:102C1400000E026E010E016E000E046E010E036EB4
:102C2400E4EC0EF0000E026E020E016E000E046E55
:102C3400010E036EE4EC0EF0C280AA0EC06E120008
:102C440003C005F004C006F001C007F002C008F09C
:102C540005C0D9FF06C0DAFF054A062A07C0E1FF0E
:102C640008C0E2FF074A082ADFCFE7FFE750D8A4ED
:102C74003EEF16F040EF16F02AEF16F01200320E77
:102C8400F66E2D0EF76E000EF86E00EED6F010EE16
:102C940012F00900F5CFEEFFE550E150FAE100EE45
:102CA40036F00C0EEE6AE806FDE1000EF86E000147
:102CB40062EF03F0076E84820750ACEC16F0848454
:102CC400000E026E030E016EC7EC14F08492000E27
:102CD400026E030E016EC7EC14F084821200076EBC
:102CE40084820750ACEC16F08494000E026E030E3E
:102CF400016EC7EC14F08492000E026E030E016E96
:102D0400C7EC14F08482120001500302F3CF05F0E3
:102D1400F4CF06F001500402F350062602500302D9
:102D2400F350062605C001F006C002F0120050332D
:102D3400000000005032000000005031000000008C
:102D44003AC001F03BC002F01200070E93160F0EBA
:0C2D540095121200016E01C083FF1200F6
:020000040020DA
:08000000FFFFFFFFFFFFFFFF00
:020000040030CA
:0E000000FF027100FF8380FF0FC00FE00F4072
:00000001FF
